{
  "contractName": "ItemManager",
  "abi": [
    {
      "anonymous": false,
      "inputs": [
        {
          "indexed": false,
          "internalType": "uint256",
          "name": "_itemIndex",
          "type": "uint256"
        },
        {
          "indexed": false,
          "internalType": "uint256",
          "name": "_step",
          "type": "uint256"
        },
        {
          "indexed": false,
          "internalType": "address",
          "name": "_itemAddress",
          "type": "address"
        }
      ],
      "name": "SupplyChainEvent",
      "type": "event"
    },
    {
      "inputs": [],
      "name": "_owner",
      "outputs": [
        {
          "internalType": "address",
          "name": "",
          "type": "address"
        }
      ],
      "stateMutability": "view",
      "type": "function",
      "constant": true
    },
    {
      "inputs": [],
      "name": "isOwner",
      "outputs": [
        {
          "internalType": "bool",
          "name": "",
          "type": "bool"
        }
      ],
      "stateMutability": "view",
      "type": "function",
      "constant": true
    },
    {
      "inputs": [],
      "name": "itemIndex",
      "outputs": [
        {
          "internalType": "uint256",
          "name": "",
          "type": "uint256"
        }
      ],
      "stateMutability": "view",
      "type": "function",
      "constant": true
    },
    {
      "inputs": [
        {
          "internalType": "uint256",
          "name": "",
          "type": "uint256"
        }
      ],
      "name": "items",
      "outputs": [
        {
          "internalType": "contract Item",
          "name": "_item",
          "type": "address"
        },
        {
          "internalType": "string",
          "name": "_identifier",
          "type": "string"
        },
        {
          "internalType": "enum ItemManager.SupplyChainStep",
          "name": "_step",
          "type": "uint8"
        }
      ],
      "stateMutability": "view",
      "type": "function",
      "constant": true
    },
    {
      "inputs": [
        {
          "internalType": "string",
          "name": "_identifier",
          "type": "string"
        },
        {
          "internalType": "uint256",
          "name": "_priceItem",
          "type": "uint256"
        }
      ],
      "name": "createItem",
      "outputs": [],
      "stateMutability": "nonpayable",
      "type": "function"
    },
    {
      "inputs": [
        {
          "internalType": "uint256",
          "name": "_itemIndex",
          "type": "uint256"
        }
      ],
      "name": "triggerPayment",
      "outputs": [],
      "stateMutability": "payable",
      "type": "function",
      "payable": true
    },
    {
      "inputs": [
        {
          "internalType": "uint256",
          "name": "_itemIndex",
          "type": "uint256"
        }
      ],
      "name": "triggerDelivery",
      "outputs": [],
      "stateMutability": "nonpayable",
      "type": "function"
    }
  ],
  "bytecode": "0x608060405234801561001057600080fd5b50336000806101000a81548173ffffffffffffffffffffffffffffffffffffffff021916908373ffffffffffffffffffffffffffffffffffffffff1602179055506111fc806100606000396000f3fe6080604052600436106100705760003560e01c8063b2bdfa7b1161004e578063b2bdfa7b146101a2578063bfb231d2146101e3578063cd31831e146102c6578063e07bb1a71461030157610070565b8063800fb83f146100755780638c551742146100a35780638f32d59b14610175575b600080fd5b6100a16004803603602081101561008b57600080fd5b810190808035906020019092919050505061032c565b005b3480156100af57600080fd5b50610173600480360360408110156100c657600080fd5b81019080803590602001906401000000008111156100e357600080fd5b8201836020820111156100f557600080fd5b8035906020019184600183028401116401000000008311171561011757600080fd5b91908080601f016020809104026020016040519081016040528093929190818152602001838380828437600081840152601f19601f8201169050808301925050505050505091929192908035906020019092919050505061066e565b005b34801561018157600080fd5b5061018a6108ac565b60405180821515815260200191505060405180910390f35b3480156101ae57600080fd5b506101b7610903565b604051808273ffffffffffffffffffffffffffffffffffffffff16815260200191505060405180910390f35b3480156101ef57600080fd5b5061021c6004803603602081101561020657600080fd5b8101908080359060200190929190505050610927565b604051808473ffffffffffffffffffffffffffffffffffffffff1681526020018060200183600281111561024c57fe5b8152602001828103825284818151815260200191508051906020019080838360005b8381101561028957808201518184015260208101905061026e565b50505050905090810190601f1680156102b65780820380516001836020036101000a031916815260200191505b5094505050505060405180910390f35b3480156102d257600080fd5b506102ff600480360360208110156102e957600080fd5b8101908080359060200190929190505050610a16565b005b34801561030d57600080fd5b50610316610c1e565b6040518082815260200191505060405180910390f35b60006001600083815260200190815260200160002060000160009054906101000a900473ffffffffffffffffffffffffffffffffffffffff1690503373ffffffffffffffffffffffffffffffffffffffff168173ffffffffffffffffffffffffffffffffffffffff16146103eb576040517f08c379a000000000000000000000000000000000000000000000000000000000815260040180806020018281038252602b81526020018061119c602b913960400191505060405180910390fd5b348173ffffffffffffffffffffffffffffffffffffffff16633c8da5886040518163ffffffff1660e01b815260040160206040518083038186803b15801561043257600080fd5b505afa158015610446573d6000803e3d6000fd5b505050506040513d602081101561045c57600080fd5b8101908080519060200190929190505050146104e0576040517f08c379a000000000000000000000000000000000000000000000000000000000815260040180806020018281038252600e8152602001807f4e6f742066756c6c79207061696400000000000000000000000000000000000081525060200191505060405180910390fd5b600060028111156104ed57fe5b6001600084815260200190815260200160002060020160009054906101000a900460ff16600281111561051c57fe5b14610572576040517f08c379a000000000000000000000000000000000000000000000000000000000815260040180806020018281038252602281526020018061117a6022913960400191505060405180910390fd5b600180600084815260200190815260200160002060020160006101000a81548160ff021916908360028111156105a457fe5b02179055507f138e90f9778d98aa08f16bae1b8a7f8636434d25889a5ab718c43a45033c319c826001600085815260200190815260200160002060020160009054906101000a900460ff1660028111156105fa57fe5b6001600086815260200190815260200160002060000160009054906101000a900473ffffffffffffffffffffffffffffffffffffffff16604051808481526020018381526020018273ffffffffffffffffffffffffffffffffffffffff168152602001935050505060405180910390a15050565b6106766108ac565b6106e8576040517f08c379a00000000000000000000000000000000000000000000000000000000081526004018080602001828103825260158152602001807f596f7520617265206e6f7420746865206f776e6572000000000000000000000081525060200191505060405180910390fd5b600030826002546040516106fb90610c24565b808473ffffffffffffffffffffffffffffffffffffffff1681526020018381526020018281526020019350505050604051809103906000f080158015610745573d6000803e3d6000fd5b5090508060016000600254815260200190815260200160002060000160006101000a81548173ffffffffffffffffffffffffffffffffffffffff021916908373ffffffffffffffffffffffffffffffffffffffff1602179055508260016000600254815260200190815260200160002060010190805190602001906107cb929190610c31565b50600060016000600254815260200190815260200160002060020160006101000a81548160ff0219169083600281111561080157fe5b02179055507f138e90f9778d98aa08f16bae1b8a7f8636434d25889a5ab718c43a45033c319c60025460016000600254815260200190815260200160002060020160009054906101000a900460ff16600281111561085b57fe5b83604051808481526020018381526020018273ffffffffffffffffffffffffffffffffffffffff168152602001935050505060405180910390a1600260008154809291906001019190505550505050565b60008060009054906101000a900473ffffffffffffffffffffffffffffffffffffffff1673ffffffffffffffffffffffffffffffffffffffff163373ffffffffffffffffffffffffffffffffffffffff1614905090565b60008054906101000a900473ffffffffffffffffffffffffffffffffffffffff1681565b60016020528060005260406000206000915090508060000160009054906101000a900473ffffffffffffffffffffffffffffffffffffffff1690806001018054600181600116156101000203166002900480601f0160208091040260200160405190810160405280929190818152602001828054600181600116156101000203166002900480156109f95780601f106109ce576101008083540402835291602001916109f9565b820191906000526020600020905b8154815290600101906020018083116109dc57829003601f168201915b5050505050908060020160009054906101000a900460ff16905083565b610a1e6108ac565b610a90576040517f08c379a00000000000000000000000000000000000000000000000000000000081526004018080602001828103825260158152602001807f596f7520617265206e6f7420746865206f776e6572000000000000000000000081525060200191505060405180910390fd5b60016002811115610a9d57fe5b6001600083815260200190815260200160002060020160009054906101000a900460ff166002811115610acc57fe5b14610b22576040517f08c379a000000000000000000000000000000000000000000000000000000000815260040180806020018281038252602281526020018061117a6022913960400191505060405180910390fd5b60026001600083815260200190815260200160002060020160006101000a81548160ff02191690836002811115610b5557fe5b02179055507f138e90f9778d98aa08f16bae1b8a7f8636434d25889a5ab718c43a45033c319c816001600084815260200190815260200160002060020160009054906101000a900460ff166002811115610bab57fe5b6001600085815260200190815260200160002060000160009054906101000a900473ffffffffffffffffffffffffffffffffffffffff16604051808481526020018381526020018273ffffffffffffffffffffffffffffffffffffffff168152602001935050505060405180910390a150565b60025481565b6104ab80610ccf83390190565b828054600181600116156101000203166002900490600052602060002090601f016020900481019282601f10610c7257805160ff1916838001178555610ca0565b82800160010185558215610ca0579182015b82811115610c9f578251825591602001919060010190610c84565b5b509050610cad9190610cb1565b5090565b5b80821115610cca576000816000905550600101610cb2565b509056fe608060405234801561001057600080fd5b506040516104ab3803806104ab8339818101604052606081101561003357600080fd5b8101908080519060200190929190805190602001909291908051906020019092919050505082600360006101000a81548173ffffffffffffffffffffffffffffffffffffffff021916908373ffffffffffffffffffffffffffffffffffffffff16021790555081600181905550806002819055505050506103f2806100b96000396000f3fe6080604052600436106100385760003560e01c8063272aa05f146103295780632986c0e5146103545780633c8da5881461037f5761031a565b3661031a5760015434146100b4576040517f08c379a00000000000000000000000000000000000000000000000000000000081526004018080602001828103825260188152602001807f4f6e6c79206163636570742066756c6c207061796d656e74000000000000000081525060200191505060405180910390fd5b600080541461012b576040517f08c379a00000000000000000000000000000000000000000000000000000000081526004018080602001828103825260138152602001807f4974656d20686173206265656e2070616964210000000000000000000000000081525060200191505060405180910390fd5b3460008082825401925050819055506000600360009054906101000a900473ffffffffffffffffffffffffffffffffffffffff1673ffffffffffffffffffffffffffffffffffffffff1634600254604051602401808281526020019150506040516020818303038152906040527f800fb83f000000000000000000000000000000000000000000000000000000007bffffffffffffffffffffffffffffffffffffffffffffffffffffffff19166020820180517bffffffffffffffffffffffffffffffffffffffffffffffffffffffff83818316178352505050506040518082805190602001908083835b602083106102395780518252602082019150602081019050602083039250610216565b6001836020036101000a03801982511681845116808217855250505050505090500191505060006040518083038185875af1925050503d806000811461029b576040519150601f19603f3d011682016040523d82523d6000602084013e6102a0565b606091505b5050905080610317576040517f08c379a00000000000000000000000000000000000000000000000000000000081526004018080602001828103825260188152602001807f556e61626c657420746f206d616b652064656c6976657279000000000000000081525060200191505060405180910390fd5b50005b34801561032657600080fd5b50005b34801561033557600080fd5b5061033e6103aa565b6040518082815260200191505060405180910390f35b34801561036057600080fd5b506103696103b0565b6040518082815260200191505060405180910390f35b34801561038b57600080fd5b506103946103b6565b6040518082815260200191505060405180910390f35b60005481565b60025481565b6001548156fea264697066735822122092a46d7659096f5bab1e40f9c92b9f0357a6c3f67d7b6c4620a3926502888e0964736f6c634300060c00334974656d206675727468657220646f776e2074686520737570706c7920636861696e4f6e6c79206974656d732061726520616c6c6f77656420746f20757064617465207468656d73656c766573a26469706673582212201024c5b046f7020e6cd7c8cb22a26f1cf1f819b563024c65c1bf287717a550d464736f6c634300060c0033",
  "immutableReferences": {},
  "source": "pragma solidity ^0.6.0;\n\nimport \"./Item.sol\";\nimport \"./Ownable.sol\";\n\ncontract ItemManager is Ownable {\n\n    enum SupplyChainStep{Created, Paid, Delivered}\n    event SupplyChainEvent(uint _itemIndex, uint _step, address _itemAddress);\n\n    struct S_Item {\n        Item _item;\n        string _identifier;\n        ItemManager.SupplyChainStep _step;\n    }\n\n    mapping(uint => S_Item) public items;\n    uint public itemIndex;\n\n    function createItem(string memory _identifier, uint _priceItem) public onlyOwner {\n        Item item = new Item(this, _priceItem, itemIndex);\n        items[itemIndex]._item = item;\n        items[itemIndex]._identifier = _identifier;\n        items[itemIndex]._step = SupplyChainStep.Created;\n\n        emit SupplyChainEvent(itemIndex, uint(items[itemIndex]._step), address(item));\n        itemIndex++;\n    }\n\n    function triggerPayment(uint _itemIndex) public payable {\n        Item item = items[_itemIndex]._item;\n        require(address(item) == msg.sender, \"Only items are allowed to update themselves\");\n        require(item.priceInWei() == msg.value, \"Not fully paid\");\n        require(items[_itemIndex]._step == SupplyChainStep.Created, \"Item further down the supply chain\");\n\n        items[_itemIndex]._step = SupplyChainStep.Paid;\n        emit SupplyChainEvent(_itemIndex, uint(items[_itemIndex]._step), address(items[_itemIndex]._item));\n    }\n\n    function triggerDelivery(uint _itemIndex) public onlyOwner {\n        require(items[_itemIndex]._step == SupplyChainStep.Paid, \"Item further down the supply chain\");\n\n        items[_itemIndex]._step = SupplyChainStep.Delivered;\n        emit SupplyChainEvent(_itemIndex, uint(items[_itemIndex]._step), address(items[_itemIndex]._item));\n    }\n\n}",
  "sourcePath": "/Users/leejianyang/Desktop/projects/blockchain/supply-chain-f/contracts/ItemManager.sol",
  "compiler": {
    "name": "solc",
    "version": "0.6.12+commit.27d51765.Emscripten.clang"
  },
  "schemaVersion": "3.4.4",
  "updatedAt": "2022-03-15T08:05:29.132Z",
  "networkType": "ethereum",
  "devdoc": {
    "kind": "dev",
    "methods": {},
    "version": 1
  },
  "userdoc": {
    "kind": "user",
    "methods": {},
    "version": 1
  }
}