{
  "contractName": "Item",
  "abi": [
    {
      "inputs": [
        {
          "internalType": "contract ItemManager",
          "name": "_parentContract",
          "type": "address"
        },
        {
          "internalType": "uint256",
          "name": "_priceInWei",
          "type": "uint256"
        },
        {
          "internalType": "uint256",
          "name": "_index",
          "type": "uint256"
        }
      ],
      "stateMutability": "nonpayable",
      "type": "constructor"
    },
    {
      "stateMutability": "nonpayable",
      "type": "fallback"
    },
    {
      "inputs": [],
      "name": "index",
      "outputs": [
        {
          "internalType": "uint256",
          "name": "",
          "type": "uint256"
        }
      ],
      "stateMutability": "view",
      "type": "function"
    },
    {
      "inputs": [],
      "name": "paidInWei",
      "outputs": [
        {
          "internalType": "uint256",
          "name": "",
          "type": "uint256"
        }
      ],
      "stateMutability": "view",
      "type": "function"
    },
    {
      "inputs": [],
      "name": "priceInWei",
      "outputs": [
        {
          "internalType": "uint256",
          "name": "",
          "type": "uint256"
        }
      ],
      "stateMutability": "view",
      "type": "function"
    },
    {
      "stateMutability": "payable",
      "type": "receive"
    }
  ],
  "bytecode": "0x608060405234801561001057600080fd5b506040516104ab3803806104ab8339818101604052606081101561003357600080fd5b8101908080519060200190929190805190602001909291908051906020019092919050505082600360006101000a81548173ffffffffffffffffffffffffffffffffffffffff021916908373ffffffffffffffffffffffffffffffffffffffff16021790555081600181905550806002819055505050506103f2806100b96000396000f3fe6080604052600436106100385760003560e01c8063272aa05f146103295780632986c0e5146103545780633c8da5881461037f5761031a565b3661031a5760015434146100b4576040517f08c379a00000000000000000000000000000000000000000000000000000000081526004018080602001828103825260188152602001807f4f6e6c79206163636570742066756c6c207061796d656e74000000000000000081525060200191505060405180910390fd5b600080541461012b576040517f08c379a00000000000000000000000000000000000000000000000000000000081526004018080602001828103825260138152602001807f4974656d20686173206265656e2070616964210000000000000000000000000081525060200191505060405180910390fd5b3460008082825401925050819055506000600360009054906101000a900473ffffffffffffffffffffffffffffffffffffffff1673ffffffffffffffffffffffffffffffffffffffff1634600254604051602401808281526020019150506040516020818303038152906040527f800fb83f000000000000000000000000000000000000000000000000000000007bffffffffffffffffffffffffffffffffffffffffffffffffffffffff19166020820180517bffffffffffffffffffffffffffffffffffffffffffffffffffffffff83818316178352505050506040518082805190602001908083835b602083106102395780518252602082019150602081019050602083039250610216565b6001836020036101000a03801982511681845116808217855250505050505090500191505060006040518083038185875af1925050503d806000811461029b576040519150601f19603f3d011682016040523d82523d6000602084013e6102a0565b606091505b5050905080610317576040517f08c379a00000000000000000000000000000000000000000000000000000000081526004018080602001828103825260188152602001807f556e61626c657420746f206d616b652064656c6976657279000000000000000081525060200191505060405180910390fd5b50005b34801561032657600080fd5b50005b34801561033557600080fd5b5061033e6103aa565b6040518082815260200191505060405180910390f35b34801561036057600080fd5b506103696103b0565b6040518082815260200191505060405180910390f35b34801561038b57600080fd5b506103946103b6565b6040518082815260200191505060405180910390f35b60005481565b60025481565b6001548156fea264697066735822122092a46d7659096f5bab1e40f9c92b9f0357a6c3f67d7b6c4620a3926502888e0964736f6c634300060c0033",
  "immutableReferences": {},
  "source": "pragma solidity ^0.6.0;\n\nimport \"./ItemManager.sol\";\n\ncontract Item {\n\n    uint public paidInWei;\n    uint public priceInWei;\n    uint public index;\n\n    ItemManager parentContract;\n\n    constructor(ItemManager _parentContract, uint _priceInWei, uint _index) public {\n        parentContract = _parentContract;\n        priceInWei = _priceInWei;\n        index = _index;\n    }\n\n    receive() external payable {\n        require(msg.value == priceInWei, \"Only accept full payment\");\n        require(paidInWei == 0, \"Item has been paid!\");\n        paidInWei += msg.value;\n        (bool success, ) = address(parentContract).call.value(msg.value)(abi.encodeWithSignature(\"triggerPayment(uint256)\", index));\n        require(success, \"Unablet to make delivery\");\n    }\n\n    fallback() external {}\n\n}",
  "sourcePath": "/Users/leejianyang/Desktop/projects/blockchain/supply-chain-f/contracts/Item.sol",
  "compiler": {
    "name": "solc",
    "version": "0.6.12+commit.27d51765.Emscripten.clang"
  },
  "schemaVersion": "3.4.4",
  "updatedAt": "2022-03-15T08:05:27.459Z",
  "devdoc": {
    "kind": "dev",
    "methods": {},
    "version": 1
  },
  "userdoc": {
    "kind": "user",
    "methods": {},
    "version": 1
  }
}