{
  "contractName": "Ownable",
  "abi": [
    {
      "inputs": [],
      "stateMutability": "nonpayable",
      "type": "constructor"
    },
    {
      "inputs": [],
      "name": "_owner",
      "outputs": [
        {
          "internalType": "address",
          "name": "",
          "type": "address"
        }
      ],
      "stateMutability": "view",
      "type": "function"
    },
    {
      "inputs": [],
      "name": "isOwner",
      "outputs": [
        {
          "internalType": "bool",
          "name": "",
          "type": "bool"
        }
      ],
      "stateMutability": "view",
      "type": "function"
    }
  ],
  "bytecode": "0x608060405234801561001057600080fd5b50336000806101000a81548173ffffffffffffffffffffffffffffffffffffffff021916908373ffffffffffffffffffffffffffffffffffffffff160217905550610140806100606000396000f3fe608060405234801561001057600080fd5b50600436106100365760003560e01c80638f32d59b1461003b578063b2bdfa7b1461005b575b600080fd5b61004361008f565b60405180821515815260200191505060405180910390f35b6100636100e6565b604051808273ffffffffffffffffffffffffffffffffffffffff16815260200191505060405180910390f35b60008060009054906101000a900473ffffffffffffffffffffffffffffffffffffffff1673ffffffffffffffffffffffffffffffffffffffff163373ffffffffffffffffffffffffffffffffffffffff1614905090565b60008054906101000a900473ffffffffffffffffffffffffffffffffffffffff168156fea26469706673582212202daaa38f7a74bf7a822452c8b416a52e284a3a76829881e18ef9ea299d1dd8dc64736f6c634300060c0033",
  "immutableReferences": {},
  "source": "pragma solidity ^0.6.0;\n\ncontract Ownable {\n\n    address public _owner;\n\n    constructor() public {\n        _owner = msg.sender;\n    }\n\n    modifier onlyOwner {\n        require(isOwner(), \"You are not the owner\");\n        _;\n    }\n\n    function isOwner() public view returns(bool) {\n        return msg.sender == _owner;\n    }\n\n}",
  "sourcePath": "/Users/leejianyang/Desktop/projects/blockchain/supply-chain-f/contracts/Ownable.sol",
  "compiler": {
    "name": "solc",
    "version": "0.6.12+commit.27d51765.Emscripten.clang"
  },
  "schemaVersion": "3.4.4",
  "updatedAt": "2022-03-15T08:05:27.464Z",
  "devdoc": {
    "kind": "dev",
    "methods": {},
    "version": 1
  },
  "userdoc": {
    "kind": "user",
    "methods": {},
    "version": 1
  }
}